{
  "_format": "hh-sol-artifact-1",
  "contractName": "DShare",
  "sourceName": "contracts/DShare.sol",
  "abi": [
    {
      "inputs": [],
      "stateMutability": "nonpayable",
      "type": "constructor"
    },
    {
      "anonymous": false,
      "inputs": [
        {
          "indexed": true,
          "internalType": "bytes32",
          "name": "fileHash",
          "type": "bytes32"
        },
        {
          "indexed": false,
          "internalType": "enum DShare.AccessType",
          "name": "newAccess",
          "type": "uint8"
        }
      ],
      "name": "AccessTypeChanged",
      "type": "event"
    },
    {
      "anonymous": false,
      "inputs": [
        {
          "indexed": true,
          "internalType": "bytes32",
          "name": "fileHash",
          "type": "bytes32"
        },
        {
          "indexed": true,
          "internalType": "address",
          "name": "sharedWith",
          "type": "address"
        }
      ],
      "name": "FileShared",
      "type": "event"
    },
    {
      "anonymous": false,
      "inputs": [
        {
          "indexed": true,
          "internalType": "bytes32",
          "name": "fileHash",
          "type": "bytes32"
        },
        {
          "indexed": true,
          "internalType": "address",
          "name": "uploader",
          "type": "address"
        },
        {
          "indexed": false,
          "internalType": "enum DShare.AccessType",
          "name": "access",
          "type": "uint8"
        }
      ],
      "name": "FileUploaded",
      "type": "event"
    },
    {
      "anonymous": false,
      "inputs": [
        {
          "indexed": true,
          "internalType": "bytes32",
          "name": "fileHash",
          "type": "bytes32"
        },
        {
          "indexed": true,
          "internalType": "address",
          "name": "revokedUser",
          "type": "address"
        }
      ],
      "name": "SharedAccessRevoked",
      "type": "event"
    },
    {
      "anonymous": false,
      "inputs": [
        {
          "indexed": true,
          "internalType": "address",
          "name": "user",
          "type": "address"
        }
      ],
      "name": "UserBlocked",
      "type": "event"
    },
    {
      "anonymous": false,
      "inputs": [
        {
          "indexed": true,
          "internalType": "address",
          "name": "user",
          "type": "address"
        }
      ],
      "name": "UserUnblocked",
      "type": "event"
    },
    {
      "inputs": [
        {
          "internalType": "address",
          "name": "_user",
          "type": "address"
        }
      ],
      "name": "blockUser",
      "outputs": [],
      "stateMutability": "nonpayable",
      "type": "function"
    },
    {
      "inputs": [
        {
          "internalType": "bytes32",
          "name": "fileHash",
          "type": "bytes32"
        },
        {
          "internalType": "enum DShare.AccessType",
          "name": "newAccess",
          "type": "uint8"
        },
        {
          "internalType": "address[]",
          "name": "sharedUsers",
          "type": "address[]"
        }
      ],
      "name": "changeAccessType",
      "outputs": [],
      "stateMutability": "nonpayable",
      "type": "function"
    },
    {
      "inputs": [
        {
          "internalType": "bytes32",
          "name": "",
          "type": "bytes32"
        }
      ],
      "name": "files",
      "outputs": [
        {
          "internalType": "string",
          "name": "fileName",
          "type": "string"
        },
        {
          "internalType": "string",
          "name": "author",
          "type": "string"
        },
        {
          "internalType": "uint256",
          "name": "timestamp",
          "type": "uint256"
        },
        {
          "internalType": "string",
          "name": "fileType",
          "type": "string"
        },
        {
          "internalType": "uint256",
          "name": "fileSize",
          "type": "uint256"
        },
        {
          "internalType": "string",
          "name": "cid",
          "type": "string"
        },
        {
          "internalType": "enum DShare.AccessType",
          "name": "access",
          "type": "uint8"
        },
        {
          "internalType": "address",
          "name": "uploader",
          "type": "address"
        }
      ],
      "stateMutability": "view",
      "type": "function"
    },
    {
      "inputs": [],
      "name": "getAllPublicAndSharedFiles",
      "outputs": [
        {
          "components": [
            {
              "internalType": "bytes32",
              "name": "fileHash",
              "type": "bytes32"
            },
            {
              "internalType": "address",
              "name": "uploader",
              "type": "address"
            },
            {
              "internalType": "address[]",
              "name": "sharedWith",
              "type": "address[]"
            }
          ],
          "internalType": "struct DShare.FileAccessInfo[]",
          "name": "",
          "type": "tuple[]"
        }
      ],
      "stateMutability": "view",
      "type": "function"
    },
    {
      "inputs": [
        {
          "internalType": "bytes32",
          "name": "fileHash",
          "type": "bytes32"
        }
      ],
      "name": "getFile",
      "outputs": [
        {
          "components": [
            {
              "internalType": "string",
              "name": "fileName",
              "type": "string"
            },
            {
              "internalType": "string",
              "name": "author",
              "type": "string"
            },
            {
              "internalType": "uint256",
              "name": "timestamp",
              "type": "uint256"
            },
            {
              "internalType": "string",
              "name": "fileType",
              "type": "string"
            },
            {
              "internalType": "uint256",
              "name": "fileSize",
              "type": "uint256"
            },
            {
              "internalType": "string",
              "name": "cid",
              "type": "string"
            },
            {
              "internalType": "enum DShare.AccessType",
              "name": "access",
              "type": "uint8"
            },
            {
              "internalType": "address[]",
              "name": "sharedWith",
              "type": "address[]"
            },
            {
              "internalType": "address",
              "name": "uploader",
              "type": "address"
            }
          ],
          "internalType": "struct DShare.FileDetails",
          "name": "",
          "type": "tuple"
        }
      ],
      "stateMutability": "view",
      "type": "function"
    },
    {
      "inputs": [],
      "name": "getMyUploadedFiles",
      "outputs": [
        {
          "internalType": "bytes32[]",
          "name": "",
          "type": "bytes32[]"
        }
      ],
      "stateMutability": "view",
      "type": "function"
    },
    {
      "inputs": [
        {
          "internalType": "address",
          "name": "user",
          "type": "address"
        }
      ],
      "name": "getUploadedFilesByAddress",
      "outputs": [
        {
          "internalType": "bytes32[]",
          "name": "",
          "type": "bytes32[]"
        }
      ],
      "stateMutability": "view",
      "type": "function"
    },
    {
      "inputs": [
        {
          "internalType": "address",
          "name": "",
          "type": "address"
        }
      ],
      "name": "isBlocked",
      "outputs": [
        {
          "internalType": "bool",
          "name": "",
          "type": "bool"
        }
      ],
      "stateMutability": "view",
      "type": "function"
    },
    {
      "inputs": [
        {
          "internalType": "bytes32",
          "name": "fileHash",
          "type": "bytes32"
        },
        {
          "internalType": "address",
          "name": "user",
          "type": "address"
        }
      ],
      "name": "isFileSharedWith",
      "outputs": [
        {
          "internalType": "bool",
          "name": "",
          "type": "bool"
        }
      ],
      "stateMutability": "view",
      "type": "function"
    },
    {
      "inputs": [],
      "name": "owner",
      "outputs": [
        {
          "internalType": "address",
          "name": "",
          "type": "address"
        }
      ],
      "stateMutability": "view",
      "type": "function"
    },
    {
      "inputs": [
        {
          "internalType": "address",
          "name": "_user",
          "type": "address"
        }
      ],
      "name": "unblockUser",
      "outputs": [],
      "stateMutability": "nonpayable",
      "type": "function"
    },
    {
      "inputs": [
        {
          "internalType": "string",
          "name": "_fileName",
          "type": "string"
        },
        {
          "internalType": "string",
          "name": "_author",
          "type": "string"
        },
        {
          "internalType": "string",
          "name": "_fileType",
          "type": "string"
        },
        {
          "internalType": "uint256",
          "name": "_fileSize",
          "type": "uint256"
        },
        {
          "internalType": "string",
          "name": "_cid",
          "type": "string"
        },
        {
          "internalType": "enum DShare.AccessType",
          "name": "_access",
          "type": "uint8"
        },
        {
          "internalType": "address[]",
          "name": "sharedWithList",
          "type": "address[]"
        },
        {
          "internalType": "address",
          "name": "_uploader",
          "type": "address"
        }
      ],
      "name": "uploadFile",
      "outputs": [
        {
          "internalType": "bytes32",
          "name": "fileHash",
          "type": "bytes32"
        }
      ],
      "stateMutability": "nonpayable",
      "type": "function"
    }
  ],
  "bytecode": "0x6080604052348015600f57600080fd5b50336000806101000a81548173ffffffffffffffffffffffffffffffffffffffff021916908373ffffffffffffffffffffffffffffffffffffffff1602179055506138a78061005f6000396000f3fe608060405234801561001057600080fd5b50600436106100b45760003560e01c80638da5cb5b116100715780638da5cb5b1461019f57806398c9adff146101bd5780639f32e6f0146101f4578063a488dbff14610212578063cbb3e0391461022e578063fbac39511461025e576100b4565b80630cc2896f146100b957806339d319e5146100e95780633da013251461010557806344968a9f14610121578063473aa2a51461013f578063610c03431461016f575b600080fd5b6100d360048036038101906100ce9190612242565b61028e565b6040516100e09190612337565b60405180910390f35b61010360048036038101906100fe9190612242565b610325565b005b61011f600480360381019061011a9190612242565b610451565b005b61012961057d565b6040516101369190612337565b60405180910390f35b61015960048036038101906101549190612385565b610612565b6040516101669190612671565b60405180910390f35b610189600480360381019061018491906128e1565b610d56565b6040516101969190612a32565b60405180910390f35b6101a76113cd565b6040516101b49190612a5c565b60405180910390f35b6101d760048036038101906101d29190612385565b6113f1565b6040516101eb989796959493929190612adf565b60405180910390f35b6101fc611686565b6040516102099190612c8b565b60405180910390f35b61022c60048036038101906102279190612cad565b6118dc565b005b61024860048036038101906102439190612d1c565b61205c565b6040516102559190612d77565b60405180910390f35b61027860048036038101906102739190612242565b6120c4565b6040516102859190612d77565b60405180910390f35b6060600360008373ffffffffffffffffffffffffffffffffffffffff1673ffffffffffffffffffffffffffffffffffffffff16815260200190815260200160002080548060200260200160405190810160405280929190818152602001828054801561031957602002820191906000526020600020905b815481526020019060010190808311610305575b50505050509050919050565b60008054906101000a900473ffffffffffffffffffffffffffffffffffffffff1673ffffffffffffffffffffffffffffffffffffffff163373ffffffffffffffffffffffffffffffffffffffff16146103b3576040517f08c379a00000000000000000000000000000000000000000000000000000000081526004016103aa90612dde565b60405180910390fd5b6000600260008373ffffffffffffffffffffffffffffffffffffffff1673ffffffffffffffffffffffffffffffffffffffff16815260200190815260200160002060006101000a81548160ff0219169083151502179055508073ffffffffffffffffffffffffffffffffffffffff167f798117ec059ab8d319461ef2502b1f9d8a47cd966bfd1f3e23b6f26c30bebb7760405160405180910390a250565b60008054906101000a900473ffffffffffffffffffffffffffffffffffffffff1673ffffffffffffffffffffffffffffffffffffffff163373ffffffffffffffffffffffffffffffffffffffff16146104df576040517f08c379a00000000000000000000000000000000000000000000000000000000081526004016104d690612dde565b60405180910390fd5b6001600260008373ffffffffffffffffffffffffffffffffffffffff1673ffffffffffffffffffffffffffffffffffffffff16815260200190815260200160002060006101000a81548160ff0219169083151502179055508073ffffffffffffffffffffffffffffffffffffffff167fca86d8c91ca6d00afd863578cc633a0901fad724592f89649629fe65f61410d260405160405180910390a250565b6060600360003373ffffffffffffffffffffffffffffffffffffffff1673ffffffffffffffffffffffffffffffffffffffff16815260200190815260200160002080548060200260200160405190810160405280929190818152602001828054801561060857602002820191906000526020600020905b8154815260200190600101908083116105f4575b5050505050905090565b61061a6120e4565b600260003373ffffffffffffffffffffffffffffffffffffffff1673ffffffffffffffffffffffffffffffffffffffff16815260200190815260200160002060009054906101000a900460ff16156106a7576040517f08c379a000000000000000000000000000000000000000000000000000000000815260040161069e90612e70565b60405180910390fd5b600060016000848152602001908152602001600020604051806101000160405290816000820180546106d890612ebf565b80601f016020809104026020016040519081016040528092919081815260200182805461070490612ebf565b80156107515780601f1061072657610100808354040283529160200191610751565b820191906000526020600020905b81548152906001019060200180831161073457829003601f168201915b5050505050815260200160018201805461076a90612ebf565b80601f016020809104026020016040519081016040528092919081815260200182805461079690612ebf565b80156107e35780601f106107b8576101008083540402835291602001916107e3565b820191906000526020600020905b8154815290600101906020018083116107c657829003601f168201915b505050505081526020016002820154815260200160038201805461080690612ebf565b80601f016020809104026020016040519081016040528092919081815260200182805461083290612ebf565b801561087f5780601f106108545761010080835404028352916020019161087f565b820191906000526020600020905b81548152906001019060200180831161086257829003601f168201915b50505050508152602001600482015481526020016005820180546108a290612ebf565b80601f01602080910402602001604051908101604052809291908181526020018280546108ce90612ebf565b801561091b5780601f106108f05761010080835404028352916020019161091b565b820191906000526020600020905b8154815290600101906020018083116108fe57829003601f168201915b505050505081526020016006820160009054906101000a900460ff1660028111156109495761094861245b565b5b600281111561095b5761095a61245b565b5b81526020016006820160019054906101000a900473ffffffffffffffffffffffffffffffffffffffff1673ffffffffffffffffffffffffffffffffffffffff1673ffffffffffffffffffffffffffffffffffffffff1681525050905060008160400151036109fe576040517f08c379a00000000000000000000000000000000000000000000000000000000081526004016109f590612f3c565b60405180910390fd5b600060016002811115610a1457610a1361245b565b5b8260c001516002811115610a2b57610a2a61245b565b5b03610a395760019050610b6f565b60006002811115610a4d57610a4c61245b565b5b8260c001516002811115610a6457610a6361245b565b5b03610aa3573373ffffffffffffffffffffffffffffffffffffffff168260e0015173ffffffffffffffffffffffffffffffffffffffff16149050610b6e565b600280811115610ab657610ab561245b565b5b8260c001516002811115610acd57610acc61245b565b5b03610b6d573373ffffffffffffffffffffffffffffffffffffffff168260e0015173ffffffffffffffffffffffffffffffffffffffff161480610b6a57506005600085815260200190815260200160002060003373ffffffffffffffffffffffffffffffffffffffff1673ffffffffffffffffffffffffffffffffffffffff16815260200190815260200160002060009054906101000a900460ff165b90505b5b5b80610baf576040517f08c379a0000000000000000000000000000000000000000000000000000000008152600401610ba690612fa8565b60405180910390fd5b60405180610120016040528083600001518152602001836020015181526020018360400151815260200183606001518152602001836080015181526020018360a0015181526020018360c001516002811115610c0e57610c0d61245b565b5b8152602001600280811115610c2657610c2561245b565b5b8460c001516002811115610c3d57610c3c61245b565b5b14610c9157600067ffffffffffffffff811115610c5d57610c5c61269d565b5b604051908082528060200260200182016040528015610c8b5781602001602082028036833780820191505090505b50610d2a565b60066000878152602001908152602001600020805480602002602001604051908101604052809291908181526020018280548015610d2457602002820191906000526020600020905b8160009054906101000a900473ffffffffffffffffffffffffffffffffffffffff1673ffffffffffffffffffffffffffffffffffffffff1681526020019060010190808311610cda575b50505050505b81526020018360e0015173ffffffffffffffffffffffffffffffffffffffff1681525092505050919050565b6000600260003373ffffffffffffffffffffffffffffffffffffffff1673ffffffffffffffffffffffffffffffffffffffff16815260200190815260200160002060009054906101000a900460ff1615610de5576040517f08c379a0000000000000000000000000000000000000000000000000000000008152600401610ddc90612e70565b60405180910390fd5b6000895111610e29576040517f08c379a0000000000000000000000000000000000000000000000000000000008152600401610e2090613014565b60405180910390fd5b6000855111610e6d576040517f08c379a0000000000000000000000000000000000000000000000000000000008152600401610e6490613080565b60405180910390fd5b600073ffffffffffffffffffffffffffffffffffffffff168273ffffffffffffffffffffffffffffffffffffffff1603610edc576040517f08c379a0000000000000000000000000000000000000000000000000000000008152600401610ed3906130ec565b60405180910390fd5b8888888888888742604051602001610efb9897969594939291906131e7565b6040516020818303038152906040528051906020012090506000600160008381526020019081526020016000206002015414610f6c576040517f08c379a0000000000000000000000000000000000000000000000000000000008152600401610f63906132b5565b60405180910390fd5b600060016000838152602001908152602001600020905089816000019081610f949190613481565b5088816001019081610fa69190613481565b5042816002018190555087816003019081610fc19190613481565b5086816004018190555085816005019081610fdc9190613481565b50848160060160006101000a81548160ff021916908360028111156110045761100361245b565b5b0217905550828160060160016101000a81548173ffffffffffffffffffffffffffffffffffffffff021916908373ffffffffffffffffffffffffffffffffffffffff160217905550600360008473ffffffffffffffffffffffffffffffffffffffff1673ffffffffffffffffffffffffffffffffffffffff168152602001908152602001600020829080600181540180825580915050600190039060005260206000200160009091909190915055600160028111156110c6576110c561245b565b5b8560028111156110d9576110d861245b565b5b148061110857506002808111156110f3576110f261245b565b5b8560028111156111065761110561245b565b5b145b156111375760048290806001815401808255809150506001900390600052602060002001600090919091909150555b60028081111561114a5761114961245b565b5b85600281111561115d5761115c61245b565b5b036113715760008451116111a6576040517f08c379a000000000000000000000000000000000000000000000000000000000815260040161119d9061359f565b60405180910390fd5b60005b845181101561136f5760008582815181106111c7576111c66135bf565b5b60200260200101519050600073ffffffffffffffffffffffffffffffffffffffff168173ffffffffffffffffffffffffffffffffffffffff1603611240576040517f08c379a00000000000000000000000000000000000000000000000000000000081526004016112379061363a565b60405180910390fd5b60016005600086815260200190815260200160002060008373ffffffffffffffffffffffffffffffffffffffff1673ffffffffffffffffffffffffffffffffffffffff16815260200190815260200160002060006101000a81548160ff02191690831515021790555060066000858152602001908152602001600020819080600181540180825580915050600190039060005260206000200160009091909190916101000a81548173ffffffffffffffffffffffffffffffffffffffff021916908373ffffffffffffffffffffffffffffffffffffffff1602179055508073ffffffffffffffffffffffffffffffffffffffff16847fd15a4c5b887a08754c030fcac25914029db01cd84f360ab2bf1eb887249cb77460405160405180910390a35080806001019150506111a9565b505b8273ffffffffffffffffffffffffffffffffffffffff16827f1291657596d5ab135f66572db19b661da30eaa9c8a40e6c03d7646eb6c61a4f0876040516113b8919061365a565b60405180910390a35098975050505050505050565b60008054906101000a900473ffffffffffffffffffffffffffffffffffffffff1681565b600160205280600052604060002060009150905080600001805461141490612ebf565b80601f016020809104026020016040519081016040528092919081815260200182805461144090612ebf565b801561148d5780601f106114625761010080835404028352916020019161148d565b820191906000526020600020905b81548152906001019060200180831161147057829003601f168201915b5050505050908060010180546114a290612ebf565b80601f01602080910402602001604051908101604052809291908181526020018280546114ce90612ebf565b801561151b5780601f106114f05761010080835404028352916020019161151b565b820191906000526020600020905b8154815290600101906020018083116114fe57829003601f168201915b50505050509080600201549080600301805461153690612ebf565b80601f016020809104026020016040519081016040528092919081815260200182805461156290612ebf565b80156115af5780601f10611584576101008083540402835291602001916115af565b820191906000526020600020905b81548152906001019060200180831161159257829003601f168201915b5050505050908060040154908060050180546115ca90612ebf565b80601f01602080910402602001604051908101604052809291908181526020018280546115f690612ebf565b80156116435780601f1061161857610100808354040283529160200191611643565b820191906000526020600020905b81548152906001019060200180831161162657829003601f168201915b5050505050908060060160009054906101000a900460ff16908060060160019054906101000a900473ffffffffffffffffffffffffffffffffffffffff16905088565b6060600060048054905067ffffffffffffffff8111156116a9576116a861269d565b5b6040519080825280602002602001820160405280156116e257816020015b6116cf612158565b8152602001906001900390816116c75790505b50905060005b6004805490508110156118d45760006004828154811061170b5761170a6135bf565b5b90600052602060002001549050600060016000838152602001908152602001600020905060405180606001604052808381526020018260060160019054906101000a900473ffffffffffffffffffffffffffffffffffffffff1673ffffffffffffffffffffffffffffffffffffffff1681526020016002808111156117935761179261245b565b5b8360060160009054906101000a900460ff1660028111156117b7576117b661245b565b5b1461180b57600067ffffffffffffffff8111156117d7576117d661269d565b5b6040519080825280602002602001820160405280156118055781602001602082028036833780820191505090505b506118a4565b6006600085815260200190815260200160002080548060200260200160405190810160405280929190818152602001828054801561189e57602002820191906000526020600020905b8160009054906101000a900473ffffffffffffffffffffffffffffffffffffffff1673ffffffffffffffffffffffffffffffffffffffff1681526020019060010190808311611854575b50505050505b8152508484815181106118ba576118b96135bf565b5b6020026020010181905250505080806001019150506116e8565b508091505090565b600260003373ffffffffffffffffffffffffffffffffffffffff1673ffffffffffffffffffffffffffffffffffffffff16815260200190815260200160002060009054906101000a900460ff1615611969576040517f08c379a000000000000000000000000000000000000000000000000000000000815260040161196090612e70565b60405180910390fd5b600060016000858152602001908152602001600020905060008160020154036119c7576040517f08c379a00000000000000000000000000000000000000000000000000000000081526004016119be90612f3c565b60405180910390fd5b3373ffffffffffffffffffffffffffffffffffffffff168160060160019054906101000a900473ffffffffffffffffffffffffffffffffffffffff1673ffffffffffffffffffffffffffffffffffffffff1614611a59576040517f08c379a0000000000000000000000000000000000000000000000000000000008152600401611a50906136c1565b60405180910390fd5b600280811115611a6c57611a6b61245b565b5b8160060160009054906101000a900460ff166002811115611a9057611a8f61245b565b5b03611c1157600060066000868152602001908152602001600020905060005b8180549050811015611bef576000600560008881526020019081526020016000206000848481548110611ae557611ae46135bf565b5b9060005260206000200160009054906101000a900473ffffffffffffffffffffffffffffffffffffffff1673ffffffffffffffffffffffffffffffffffffffff1673ffffffffffffffffffffffffffffffffffffffff16815260200190815260200160002060006101000a81548160ff021916908315150217905550818181548110611b7457611b736135bf565b5b9060005260206000200160009054906101000a900473ffffffffffffffffffffffffffffffffffffffff1673ffffffffffffffffffffffffffffffffffffffff16867f350f72148ec6d55ca60df525ee17abbcacb4e687308db218d0426ce50e18730860405160405180910390a38080600101915050611aaf565b50600660008681526020019081526020016000206000611c0f9190612192565b505b828160060160006101000a81548160ff02191690836002811115611c3857611c3761245b565b5b0217905550600280811115611c5057611c4f61245b565b5b836002811115611c6357611c6261245b565b5b03611e77576000825111611cac576040517f08c379a0000000000000000000000000000000000000000000000000000000008152600401611ca390613753565b60405180910390fd5b60005b8251811015611e75576000838281518110611ccd57611ccc6135bf565b5b60200260200101519050600073ffffffffffffffffffffffffffffffffffffffff168173ffffffffffffffffffffffffffffffffffffffff1603611d46576040517f08c379a0000000000000000000000000000000000000000000000000000000008152600401611d3d906137bf565b60405180910390fd5b60016005600088815260200190815260200160002060008373ffffffffffffffffffffffffffffffffffffffff1673ffffffffffffffffffffffffffffffffffffffff16815260200190815260200160002060006101000a81548160ff02191690831515021790555060066000878152602001908152602001600020819080600181540180825580915050600190039060005260206000200160009091909190916101000a81548173ffffffffffffffffffffffffffffffffffffffff021916908373ffffffffffffffffffffffffffffffffffffffff1602179055508073ffffffffffffffffffffffffffffffffffffffff16867fd15a4c5b887a08754c030fcac25914029db01cd84f360ab2bf1eb887249cb77460405160405180910390a3508080600101915050611caf565b505b6000805b600480549050811015611ec3578560048281548110611e9d57611e9c6135bf565b5b906000526020600020015403611eb65760019150611ec3565b8080600101915050611e7b565b5060016002811115611ed857611ed761245b565b5b846002811115611eeb57611eea61245b565b5b1480611f1a5750600280811115611f0557611f0461245b565b5b846002811115611f1857611f1761245b565b5b145b15611f535780611f4e5760048590806001815401808255809150506001900390600052602060002001600090919091909150555b61201d565b801561201c5760005b60048054905081101561201a578560048281548110611f7e57611f7d6135bf565b5b90600052602060002001540361200d5760046001600480549050611fa2919061380e565b81548110611fb357611fb26135bf565b5b906000526020600020015460048281548110611fd257611fd16135bf565b5b90600052602060002001819055506004805480611ff257611ff1613842565b5b6001900381819060005260206000200160009055905561201a565b8080600101915050611f5c565b505b5b847f402a67d30b5e91dde6cbed3be44b701b4933343318e602d8e86e738a634da7868560405161204d919061365a565b60405180910390a25050505050565b60006005600084815260200190815260200160002060008373ffffffffffffffffffffffffffffffffffffffff1673ffffffffffffffffffffffffffffffffffffffff16815260200190815260200160002060009054906101000a900460ff16905092915050565b60026020528060005260406000206000915054906101000a900460ff1681565b6040518061012001604052806060815260200160608152602001600081526020016060815260200160008152602001606081526020016000600281111561212e5761212d61245b565b5b815260200160608152602001600073ffffffffffffffffffffffffffffffffffffffff1681525090565b604051806060016040528060008019168152602001600073ffffffffffffffffffffffffffffffffffffffff168152602001606081525090565b50805460008255906000526020600020908101906121b091906121b3565b50565b5b808211156121cc5760008160009055506001016121b4565b5090565b6000604051905090565b600080fd5b600080fd5b600073ffffffffffffffffffffffffffffffffffffffff82169050919050565b600061220f826121e4565b9050919050565b61221f81612204565b811461222a57600080fd5b50565b60008135905061223c81612216565b92915050565b600060208284031215612258576122576121da565b5b60006122668482850161222d565b91505092915050565b600081519050919050565b600082825260208201905092915050565b6000819050602082019050919050565b6000819050919050565b6122ae8161229b565b82525050565b60006122c083836122a5565b60208301905092915050565b6000602082019050919050565b60006122e48261226f565b6122ee818561227a565b93506122f98361228b565b8060005b8381101561232a57815161231188826122b4565b975061231c836122cc565b9250506001810190506122fd565b5085935050505092915050565b6000602082019050818103600083015261235181846122d9565b905092915050565b6123628161229b565b811461236d57600080fd5b50565b60008135905061237f81612359565b92915050565b60006020828403121561239b5761239a6121da565b5b60006123a984828501612370565b91505092915050565b600081519050919050565b600082825260208201905092915050565b60005b838110156123ec5780820151818401526020810190506123d1565b60008484015250505050565b6000601f19601f8301169050919050565b6000612414826123b2565b61241e81856123bd565b935061242e8185602086016123ce565b612437816123f8565b840191505092915050565b6000819050919050565b61245581612442565b82525050565b7f4e487b7100000000000000000000000000000000000000000000000000000000600052602160045260246000fd5b6003811061249b5761249a61245b565b5b50565b60008190506124ac8261248a565b919050565b60006124bc8261249e565b9050919050565b6124cc816124b1565b82525050565b600081519050919050565b600082825260208201905092915050565b6000819050602082019050919050565b61250781612204565b82525050565b600061251983836124fe565b60208301905092915050565b6000602082019050919050565b600061253d826124d2565b61254781856124dd565b9350612552836124ee565b8060005b8381101561258357815161256a888261250d565b975061257583612525565b925050600181019050612556565b5085935050505092915050565b60006101208301600083015184820360008601526125ae8282612409565b915050602083015184820360208601526125c88282612409565b91505060408301516125dd604086018261244c565b50606083015184820360608601526125f58282612409565b915050608083015161260a608086018261244c565b5060a083015184820360a08601526126228282612409565b91505060c083015161263760c08601826124c3565b5060e083015184820360e086015261264f8282612532565b9150506101008301516126666101008601826124fe565b508091505092915050565b6000602082019050818103600083015261268b8184612590565b905092915050565b600080fd5b600080fd5b7f4e487b7100000000000000000000000000000000000000000000000000000000600052604160045260246000fd5b6126d5826123f8565b810181811067ffffffffffffffff821117156126f4576126f361269d565b5b80604052505050565b60006127076121d0565b905061271382826126cc565b919050565b600067ffffffffffffffff8211156127335761273261269d565b5b61273c826123f8565b9050602081019050919050565b82818337600083830152505050565b600061276b61276684612718565b6126fd565b90508281526020810184848401111561278757612786612698565b5b612792848285612749565b509392505050565b600082601f8301126127af576127ae612693565b5b81356127bf848260208601612758565b91505092915050565b6127d181612442565b81146127dc57600080fd5b50565b6000813590506127ee816127c8565b92915050565b6003811061280157600080fd5b50565b600081359050612813816127f4565b92915050565b600067ffffffffffffffff8211156128345761283361269d565b5b602082029050602081019050919050565b600080fd5b600061285d61285884612819565b6126fd565b905080838252602082019050602084028301858111156128805761287f612845565b5b835b818110156128a95780612895888261222d565b845260208401935050602081019050612882565b5050509392505050565b600082601f8301126128c8576128c7612693565b5b81356128d884826020860161284a565b91505092915050565b600080600080600080600080610100898b031215612902576129016121da565b5b600089013567ffffffffffffffff8111156129205761291f6121df565b5b61292c8b828c0161279a565b985050602089013567ffffffffffffffff81111561294d5761294c6121df565b5b6129598b828c0161279a565b975050604089013567ffffffffffffffff81111561297a576129796121df565b5b6129868b828c0161279a565b96505060606129978b828c016127df565b955050608089013567ffffffffffffffff8111156129b8576129b76121df565b5b6129c48b828c0161279a565b94505060a06129d58b828c01612804565b93505060c089013567ffffffffffffffff8111156129f6576129f56121df565b5b612a028b828c016128b3565b92505060e0612a138b828c0161222d565b9150509295985092959890939650565b612a2c8161229b565b82525050565b6000602082019050612a476000830184612a23565b92915050565b612a5681612204565b82525050565b6000602082019050612a716000830184612a4d565b92915050565b600082825260208201905092915050565b6000612a93826123b2565b612a9d8185612a77565b9350612aad8185602086016123ce565b612ab6816123f8565b840191505092915050565b612aca81612442565b82525050565b612ad9816124b1565b82525050565b6000610100820190508181036000830152612afa818b612a88565b90508181036020830152612b0e818a612a88565b9050612b1d6040830189612ac1565b8181036060830152612b2f8188612a88565b9050612b3e6080830187612ac1565b81810360a0830152612b508186612a88565b9050612b5f60c0830185612ad0565b612b6c60e0830184612a4d565b9998505050505050505050565b600081519050919050565b600082825260208201905092915050565b6000819050602082019050919050565b6000606083016000830151612bbd60008601826122a5565b506020830151612bd060208601826124fe565b5060408301518482036040860152612be88282612532565b9150508091505092915050565b6000612c018383612ba5565b905092915050565b6000602082019050919050565b6000612c2182612b79565b612c2b8185612b84565b935083602082028501612c3d85612b95565b8060005b85811015612c795784840389528151612c5a8582612bf5565b9450612c6583612c09565b925060208a01995050600181019050612c41565b50829750879550505050505092915050565b60006020820190508181036000830152612ca58184612c16565b905092915050565b600080600060608486031215612cc657612cc56121da565b5b6000612cd486828701612370565b9350506020612ce586828701612804565b925050604084013567ffffffffffffffff811115612d0657612d056121df565b5b612d12868287016128b3565b9150509250925092565b60008060408385031215612d3357612d326121da565b5b6000612d4185828601612370565b9250506020612d528582860161222d565b9150509250929050565b60008115159050919050565b612d7181612d5c565b82525050565b6000602082019050612d8c6000830184612d68565b92915050565b7f4f6e6c79206f776e657220616c6c6f7765640000000000000000000000000000600082015250565b6000612dc8601283612a77565b9150612dd382612d92565b602082019050919050565b60006020820190508181036000830152612df781612dbb565b9050919050565b7f596f752061726520626c6f636b65642066726f6d207573696e6720746869732060008201527f636f6e7472616374000000000000000000000000000000000000000000000000602082015250565b6000612e5a602883612a77565b9150612e6582612dfe565b604082019050919050565b60006020820190508181036000830152612e8981612e4d565b9050919050565b7f4e487b7100000000000000000000000000000000000000000000000000000000600052602260045260246000fd5b60006002820490506001821680612ed757607f821691505b602082108103612eea57612ee9612e90565b5b50919050565b7f46696c6520646f6573206e6f7420657869737400000000000000000000000000600082015250565b6000612f26601383612a77565b9150612f3182612ef0565b602082019050919050565b60006020820190508181036000830152612f5581612f19565b9050919050565b7f4163636573732064656e69656400000000000000000000000000000000000000600082015250565b6000612f92600d83612a77565b9150612f9d82612f5c565b602082019050919050565b60006020820190508181036000830152612fc181612f85565b9050919050565b7f46696c65206e616d652063616e6e6f7420626520656d70747900000000000000600082015250565b6000612ffe601983612a77565b915061300982612fc8565b602082019050919050565b6000602082019050818103600083015261302d81612ff1565b9050919050565b7f4349442063616e6e6f7420626520656d70747900000000000000000000000000600082015250565b600061306a601383612a77565b915061307582613034565b602082019050919050565b600060208201905081810360008301526130998161305d565b9050919050565b7f496e76616c69642075706c6f6164657220616464726573730000000000000000600082015250565b60006130d6601883612a77565b91506130e1826130a0565b602082019050919050565b60006020820190508181036000830152613105816130c9565b9050919050565b600081905092915050565b6000613122826123b2565b61312c818561310c565b935061313c8185602086016123ce565b80840191505092915050565b6000819050919050565b61316361315e82612442565b613148565b82525050565b60008160f81b9050919050565b600061318182613169565b9050919050565b613199613194826124b1565b613176565b82525050565b60008160601b9050919050565b60006131b78261319f565b9050919050565b60006131c9826131ac565b9050919050565b6131e16131dc82612204565b6131be565b82525050565b60006131f3828b613117565b91506131ff828a613117565b915061320b8289613117565b91506132178288613152565b6020820191506132278287613117565b91506132338286613188565b60018201915061324382856131d0565b6014820191506132538284613152565b6020820191508190509998505050505050505050565b7f46696c6520616c72656164792065786973747300000000000000000000000000600082015250565b600061329f601383612a77565b91506132aa82613269565b602082019050919050565b600060208201905081810360008301526132ce81613292565b9050919050565b60008190508160005260206000209050919050565b60006020601f8301049050919050565b600082821b905092915050565b6000600883026133377fffffffffffffffffffffffffffffffffffffffffffffffffffffffffffffffff826132fa565b61334186836132fa565b95508019841693508086168417925050509392505050565b6000819050919050565b600061337e61337961337484612442565b613359565b612442565b9050919050565b6000819050919050565b61339883613363565b6133ac6133a482613385565b848454613307565b825550505050565b600090565b6133c16133b4565b6133cc81848461338f565b505050565b5b818110156133f0576133e56000826133b9565b6001810190506133d2565b5050565b601f82111561343557613406816132d5565b61340f846132ea565b8101602085101561341e578190505b61343261342a856132ea565b8301826133d1565b50505b505050565b600082821c905092915050565b60006134586000198460080261343a565b1980831691505092915050565b60006134718383613447565b9150826002028217905092915050565b61348a826123b2565b67ffffffffffffffff8111156134a3576134a261269d565b5b6134ad8254612ebf565b6134b88282856133f4565b600060209050601f8311600181146134eb57600084156134d9578287015190505b6134e38582613465565b86555061354b565b601f1984166134f9866132d5565b60005b82811015613521578489015182556001820191506020850194506020810190506134fc565b8683101561353e578489015161353a601f891682613447565b8355505b6001600288020188555050505b505050505050565b7f536861726564206c6973742063616e6e6f7420626520656d7074790000000000600082015250565b6000613589601b83612a77565b915061359482613553565b602082019050919050565b600060208201905081810360008301526135b88161357c565b9050919050565b7f4e487b7100000000000000000000000000000000000000000000000000000000600052603260045260246000fd5b7f496e76616c696420736861726564206164647265737300000000000000000000600082015250565b6000613624601683612a77565b915061362f826135ee565b602082019050919050565b6000602082019050818103600083015261365381613617565b9050919050565b600060208201905061366f6000830184612ad0565b92915050565b7f4f6e6c792075706c6f616465722063616e206368616e67652061636365737300600082015250565b60006136ab601f83612a77565b91506136b682613675565b602082019050919050565b600060208201905081810360008301526136da8161369e565b9050919050565b7f53686172656420616363657373207265717569726573206174206c656173742060008201527f6f6e652075736572000000000000000000000000000000000000000000000000602082015250565b600061373d602883612a77565b9150613748826136e1565b604082019050919050565b6000602082019050818103600083015261376c81613730565b9050919050565b7f496e76616c696420736861726564207573657220616464726573730000000000600082015250565b60006137a9601b83612a77565b91506137b482613773565b602082019050919050565b600060208201905081810360008301526137d88161379c565b9050919050565b7f4e487b7100000000000000000000000000000000000000000000000000000000600052601160045260246000fd5b600061381982612442565b915061382483612442565b925082820390508181111561383c5761383b6137df565b5b92915050565b7f4e487b7100000000000000000000000000000000000000000000000000000000600052603160045260246000fdfea2646970667358221220df55bb77d7a3fd9253bf807410ae6488e65881cf1a0963891d21875d3e1264a864736f6c634300081c0033",
  "linkReferences": {},
  "deployedLinkReferences": {}
}