{
  "_format": "hh-sol-artifact-1",
  "contractName": "DShare",
  "sourceName": "contracts/DShare.sol",
  "abi": [
    {
      "inputs": [],
      "stateMutability": "nonpayable",
      "type": "constructor"
    },
    {
      "anonymous": false,
      "inputs": [
        {
          "indexed": true,
          "internalType": "bytes32",
          "name": "fileHash",
          "type": "bytes32"
        },
        {
          "indexed": false,
          "internalType": "enum DShare.AccessType",
          "name": "newAccess",
          "type": "uint8"
        }
      ],
      "name": "AccessTypeChanged",
      "type": "event"
    },
    {
      "anonymous": false,
      "inputs": [
        {
          "indexed": true,
          "internalType": "bytes32",
          "name": "fileHash",
          "type": "bytes32"
        },
        {
          "indexed": true,
          "internalType": "address",
          "name": "sharedWith",
          "type": "address"
        }
      ],
      "name": "FileShared",
      "type": "event"
    },
    {
      "anonymous": false,
      "inputs": [
        {
          "indexed": true,
          "internalType": "bytes32",
          "name": "fileHash",
          "type": "bytes32"
        },
        {
          "indexed": true,
          "internalType": "address",
          "name": "uploader",
          "type": "address"
        },
        {
          "indexed": false,
          "internalType": "enum DShare.AccessType",
          "name": "access",
          "type": "uint8"
        }
      ],
      "name": "FileUploaded",
      "type": "event"
    },
    {
      "anonymous": false,
      "inputs": [
        {
          "indexed": true,
          "internalType": "bytes32",
          "name": "fileHash",
          "type": "bytes32"
        },
        {
          "indexed": true,
          "internalType": "address",
          "name": "revokedUser",
          "type": "address"
        }
      ],
      "name": "SharedAccessRevoked",
      "type": "event"
    },
    {
      "anonymous": false,
      "inputs": [
        {
          "indexed": true,
          "internalType": "address",
          "name": "user",
          "type": "address"
        }
      ],
      "name": "UserBlocked",
      "type": "event"
    },
    {
      "anonymous": false,
      "inputs": [
        {
          "indexed": true,
          "internalType": "address",
          "name": "user",
          "type": "address"
        }
      ],
      "name": "UserUnblocked",
      "type": "event"
    },
    {
      "inputs": [
        {
          "internalType": "address",
          "name": "_user",
          "type": "address"
        }
      ],
      "name": "blockUser",
      "outputs": [],
      "stateMutability": "nonpayable",
      "type": "function"
    },
    {
      "inputs": [
        {
          "internalType": "bytes32",
          "name": "fileHash",
          "type": "bytes32"
        },
        {
          "internalType": "enum DShare.AccessType",
          "name": "newAccess",
          "type": "uint8"
        }
      ],
      "name": "changeAccessType",
      "outputs": [],
      "stateMutability": "nonpayable",
      "type": "function"
    },
    {
      "inputs": [
        {
          "internalType": "bytes32",
          "name": "",
          "type": "bytes32"
        }
      ],
      "name": "files",
      "outputs": [
        {
          "internalType": "string",
          "name": "fileName",
          "type": "string"
        },
        {
          "internalType": "string",
          "name": "author",
          "type": "string"
        },
        {
          "internalType": "uint256",
          "name": "timestamp",
          "type": "uint256"
        },
        {
          "internalType": "string",
          "name": "fileType",
          "type": "string"
        },
        {
          "internalType": "uint256",
          "name": "fileSize",
          "type": "uint256"
        },
        {
          "internalType": "string",
          "name": "cid",
          "type": "string"
        },
        {
          "internalType": "enum DShare.AccessType",
          "name": "access",
          "type": "uint8"
        },
        {
          "internalType": "address",
          "name": "uploader",
          "type": "address"
        }
      ],
      "stateMutability": "view",
      "type": "function"
    },
    {
      "inputs": [
        {
          "internalType": "string",
          "name": "_fileName",
          "type": "string"
        },
        {
          "internalType": "string",
          "name": "_author",
          "type": "string"
        },
        {
          "internalType": "string",
          "name": "_fileType",
          "type": "string"
        },
        {
          "internalType": "uint256",
          "name": "_fileSize",
          "type": "uint256"
        },
        {
          "internalType": "string",
          "name": "_cid",
          "type": "string"
        },
        {
          "internalType": "enum DShare.AccessType",
          "name": "_access",
          "type": "uint8"
        },
        {
          "internalType": "address",
          "name": "_uploader",
          "type": "address"
        }
      ],
      "name": "generateFileHash",
      "outputs": [
        {
          "internalType": "bytes32",
          "name": "",
          "type": "bytes32"
        }
      ],
      "stateMutability": "view",
      "type": "function"
    },
    {
      "inputs": [],
      "name": "getAllPublicAndSharedFiles",
      "outputs": [
        {
          "components": [
            {
              "internalType": "bytes32",
              "name": "fileHash",
              "type": "bytes32"
            },
            {
              "internalType": "address",
              "name": "uploader",
              "type": "address"
            },
            {
              "internalType": "address[]",
              "name": "sharedWith",
              "type": "address[]"
            }
          ],
          "internalType": "struct DShare.FileAccessInfo[]",
          "name": "",
          "type": "tuple[]"
        }
      ],
      "stateMutability": "view",
      "type": "function"
    },
    {
      "inputs": [
        {
          "internalType": "bytes32",
          "name": "fileHash",
          "type": "bytes32"
        }
      ],
      "name": "getFile",
      "outputs": [
        {
          "components": [
            {
              "internalType": "string",
              "name": "fileName",
              "type": "string"
            },
            {
              "internalType": "string",
              "name": "author",
              "type": "string"
            },
            {
              "internalType": "uint256",
              "name": "timestamp",
              "type": "uint256"
            },
            {
              "internalType": "string",
              "name": "fileType",
              "type": "string"
            },
            {
              "internalType": "uint256",
              "name": "fileSize",
              "type": "uint256"
            },
            {
              "internalType": "string",
              "name": "cid",
              "type": "string"
            },
            {
              "internalType": "enum DShare.AccessType",
              "name": "access",
              "type": "uint8"
            },
            {
              "internalType": "address[]",
              "name": "sharedWith",
              "type": "address[]"
            },
            {
              "internalType": "address",
              "name": "uploader",
              "type": "address"
            }
          ],
          "internalType": "struct DShare.FileDetails",
          "name": "",
          "type": "tuple"
        }
      ],
      "stateMutability": "view",
      "type": "function"
    },
    {
      "inputs": [],
      "name": "getMyUploadedFiles",
      "outputs": [
        {
          "internalType": "bytes32[]",
          "name": "",
          "type": "bytes32[]"
        }
      ],
      "stateMutability": "view",
      "type": "function"
    },
    {
      "inputs": [
        {
          "internalType": "address",
          "name": "user",
          "type": "address"
        }
      ],
      "name": "getUploadedFilesByAddress",
      "outputs": [
        {
          "internalType": "bytes32[]",
          "name": "",
          "type": "bytes32[]"
        }
      ],
      "stateMutability": "view",
      "type": "function"
    },
    {
      "inputs": [
        {
          "internalType": "address",
          "name": "",
          "type": "address"
        }
      ],
      "name": "isBlocked",
      "outputs": [
        {
          "internalType": "bool",
          "name": "",
          "type": "bool"
        }
      ],
      "stateMutability": "view",
      "type": "function"
    },
    {
      "inputs": [
        {
          "internalType": "bytes32",
          "name": "fileHash",
          "type": "bytes32"
        },
        {
          "internalType": "address",
          "name": "user",
          "type": "address"
        }
      ],
      "name": "isFileSharedWith",
      "outputs": [
        {
          "internalType": "bool",
          "name": "",
          "type": "bool"
        }
      ],
      "stateMutability": "view",
      "type": "function"
    },
    {
      "inputs": [],
      "name": "owner",
      "outputs": [
        {
          "internalType": "address",
          "name": "",
          "type": "address"
        }
      ],
      "stateMutability": "view",
      "type": "function"
    },
    {
      "inputs": [
        {
          "internalType": "bytes32",
          "name": "fileHash",
          "type": "bytes32"
        },
        {
          "internalType": "address",
          "name": "user",
          "type": "address"
        }
      ],
      "name": "revokeSharedAccess",
      "outputs": [],
      "stateMutability": "nonpayable",
      "type": "function"
    },
    {
      "inputs": [
        {
          "internalType": "bytes32",
          "name": "fileHash",
          "type": "bytes32"
        },
        {
          "internalType": "address[]",
          "name": "sharedWithList",
          "type": "address[]"
        }
      ],
      "name": "shareFile",
      "outputs": [],
      "stateMutability": "nonpayable",
      "type": "function"
    },
    {
      "inputs": [
        {
          "internalType": "address",
          "name": "_user",
          "type": "address"
        }
      ],
      "name": "unblockUser",
      "outputs": [],
      "stateMutability": "nonpayable",
      "type": "function"
    },
    {
      "inputs": [
        {
          "internalType": "string",
          "name": "_fileName",
          "type": "string"
        },
        {
          "internalType": "string",
          "name": "_author",
          "type": "string"
        },
        {
          "internalType": "string",
          "name": "_fileType",
          "type": "string"
        },
        {
          "internalType": "uint256",
          "name": "_fileSize",
          "type": "uint256"
        },
        {
          "internalType": "string",
          "name": "_cid",
          "type": "string"
        },
        {
          "internalType": "enum DShare.AccessType",
          "name": "_access",
          "type": "uint8"
        },
        {
          "internalType": "address[]",
          "name": "sharedWithList",
          "type": "address[]"
        },
        {
          "internalType": "address",
          "name": "_uploader",
          "type": "address"
        }
      ],
      "name": "uploadFile",
      "outputs": [
        {
          "internalType": "bytes32",
          "name": "fileHash",
          "type": "bytes32"
        }
      ],
      "stateMutability": "nonpayable",
      "type": "function"
    }
  ],
  "bytecode": "0x6080604052348015600f57600080fd5b50336000806101000a81548173ffffffffffffffffffffffffffffffffffffffff021916908373ffffffffffffffffffffffffffffffffffffffff1602179055506147c68061005f6000396000f3fe608060405234801561001057600080fd5b50600436106100f55760003560e01c8063473aa2a51161009757806398c9adff1161006657806398c9adff146102825780639f32e6f0146102b9578063cbb3e039146102d7578063fbac395114610307576100f5565b8063473aa2a5146101e8578063610c03431461021857806366b29fe6146102485780638da5cb5b14610264576100f5565b80631b113d4e116100d35780631b113d4e1461017657806339d319e5146101925780633da01325146101ae57806344968a9f146101ca576100f5565b8063012f2e5b146100fa5780630b8a74631461012a5780630cc2896f14610146575b600080fd5b610114600480360381019061010f91906130eb565b610337565b6040516101219190613216565b60405180910390f35b610144600480360381019061013f9190613325565b610408565b005b610160600480360381019061015b9190613381565b6108ab565b60405161016d919061346c565b60405180910390f35b610190600480360381019061018b919061348e565b610942565b005b6101ac60048036038101906101a79190613381565b611080565b005b6101c860048036038101906101c39190613381565b6111ac565b005b6101d26112d8565b6040516101df919061346c565b60405180910390f35b61020260048036038101906101fd91906134ce565b61136d565b60405161020f919061379f565b60405180910390f35b610232600480360381019061022d91906137c1565b611ab1565b60405161023f9190613216565b60405180910390f35b610262600480360381019061025d9190613903565b612128565b005b61026c612855565b6040516102799190613952565b60405180910390f35b61029c600480360381019061029791906134ce565b612879565b6040516102b09897969594939291906139d5565b60405180910390f35b6102c1612b0e565b6040516102ce9190613b81565b60405180910390f35b6102f160048036038101906102ec919061348e565b612d64565b6040516102fe9190613bbe565b60405180910390f35b610321600480360381019061031c9190613381565b612dcc565b60405161032e9190613bbe565b60405180910390f35b6000600260003373ffffffffffffffffffffffffffffffffffffffff1673ffffffffffffffffffffffffffffffffffffffff16815260200190815260200160002060009054906101000a900460ff16156103c6576040517f08c379a00000000000000000000000000000000000000000000000000000000081526004016103bd90613c4b565b60405180910390fd5b87878787878787426040516020016103e5989796959493929190613d46565b604051602081830303815290604052805190602001209050979650505050505050565b600260003373ffffffffffffffffffffffffffffffffffffffff1673ffffffffffffffffffffffffffffffffffffffff16815260200190815260200160002060009054906101000a900460ff1615610495576040517f08c379a000000000000000000000000000000000000000000000000000000000815260040161048c90613c4b565b60405180910390fd5b600060016000848152602001908152602001600020905060008160020154036104f3576040517f08c379a00000000000000000000000000000000000000000000000000000000081526004016104ea90613e14565b60405180910390fd5b3373ffffffffffffffffffffffffffffffffffffffff168160060160019054906101000a900473ffffffffffffffffffffffffffffffffffffffff1673ffffffffffffffffffffffffffffffffffffffff1614610585576040517f08c379a000000000000000000000000000000000000000000000000000000000815260040161057c90613e80565b60405180910390fd5b60028081111561059857610597613589565b5b8160060160009054906101000a900460ff1660028111156105bc576105bb613589565b5b146105fc576040517f08c379a00000000000000000000000000000000000000000000000000000000081526004016105f390613f12565b60405180910390fd5b6000805b60048054905081101561064857846004828154811061062257610621613f32565b5b90600052602060002001540361063b5760019150610648565b8080600101915050610600565b50806106785760048490806001815401808255809150506001900390600052602060002001600090919091909150555b60005b83518110156108a457600084828151811061069957610698613f32565b5b60200260200101519050600073ffffffffffffffffffffffffffffffffffffffff168173ffffffffffffffffffffffffffffffffffffffff1603610712576040517f08c379a000000000000000000000000000000000000000000000000000000000815260040161070990613fad565b60405180910390fd5b6005600087815260200190815260200160002060008273ffffffffffffffffffffffffffffffffffffffff1673ffffffffffffffffffffffffffffffffffffffff16815260200190815260200160002060009054906101000a900460ff166108965760016005600088815260200190815260200160002060008373ffffffffffffffffffffffffffffffffffffffff1673ffffffffffffffffffffffffffffffffffffffff16815260200190815260200160002060006101000a81548160ff02191690831515021790555060066000878152602001908152602001600020819080600181540180825580915050600190039060005260206000200160009091909190916101000a81548173ffffffffffffffffffffffffffffffffffffffff021916908373ffffffffffffffffffffffffffffffffffffffff1602179055508073ffffffffffffffffffffffffffffffffffffffff16867fd15a4c5b887a08754c030fcac25914029db01cd84f360ab2bf1eb887249cb77460405160405180910390a35b50808060010191505061067b565b5050505050565b6060600360008373ffffffffffffffffffffffffffffffffffffffff1673ffffffffffffffffffffffffffffffffffffffff16815260200190815260200160002080548060200260200160405190810160405280929190818152602001828054801561093657602002820191906000526020600020905b815481526020019060010190808311610922575b50505050509050919050565b600260003373ffffffffffffffffffffffffffffffffffffffff1673ffffffffffffffffffffffffffffffffffffffff16815260200190815260200160002060009054906101000a900460ff16156109cf576040517f08c379a00000000000000000000000000000000000000000000000000000000081526004016109c690613c4b565b60405180910390fd5b60006001600084815260200190815260200160002060405180610100016040529081600082018054610a0090613ffc565b80601f0160208091040260200160405190810160405280929190818152602001828054610a2c90613ffc565b8015610a795780601f10610a4e57610100808354040283529160200191610a79565b820191906000526020600020905b815481529060010190602001808311610a5c57829003601f168201915b50505050508152602001600182018054610a9290613ffc565b80601f0160208091040260200160405190810160405280929190818152602001828054610abe90613ffc565b8015610b0b5780601f10610ae057610100808354040283529160200191610b0b565b820191906000526020600020905b815481529060010190602001808311610aee57829003601f168201915b5050505050815260200160028201548152602001600382018054610b2e90613ffc565b80601f0160208091040260200160405190810160405280929190818152602001828054610b5a90613ffc565b8015610ba75780601f10610b7c57610100808354040283529160200191610ba7565b820191906000526020600020905b815481529060010190602001808311610b8a57829003601f168201915b5050505050815260200160048201548152602001600582018054610bca90613ffc565b80601f0160208091040260200160405190810160405280929190818152602001828054610bf690613ffc565b8015610c435780601f10610c1857610100808354040283529160200191610c43565b820191906000526020600020905b815481529060010190602001808311610c2657829003601f168201915b505050505081526020016006820160009054906101000a900460ff166002811115610c7157610c70613589565b5b6002811115610c8357610c82613589565b5b81526020016006820160019054906101000a900473ffffffffffffffffffffffffffffffffffffffff1673ffffffffffffffffffffffffffffffffffffffff1673ffffffffffffffffffffffffffffffffffffffff168152505090506000816040015103610d26576040517f08c379a0000000000000000000000000000000000000000000000000000000008152600401610d1d90613e14565b60405180910390fd5b3373ffffffffffffffffffffffffffffffffffffffff168160e0015173ffffffffffffffffffffffffffffffffffffffff1614610d98576040517f08c379a0000000000000000000000000000000000000000000000000000000008152600401610d8f90614079565b60405180910390fd5b6005600084815260200190815260200160002060008373ffffffffffffffffffffffffffffffffffffffff1673ffffffffffffffffffffffffffffffffffffffff16815260200190815260200160002060009054906101000a900460ff16610e35576040517f08c379a0000000000000000000000000000000000000000000000000000000008152600401610e2c906140e5565b60405180910390fd5b60006005600085815260200190815260200160002060008473ffffffffffffffffffffffffffffffffffffffff1673ffffffffffffffffffffffffffffffffffffffff16815260200190815260200160002060006101000a81548160ff021916908315150217905550600060066000858152602001908152602001600020905060005b8180549050811015611035578373ffffffffffffffffffffffffffffffffffffffff16828281548110610eee57610eed613f32565b5b9060005260206000200160009054906101000a900473ffffffffffffffffffffffffffffffffffffffff1673ffffffffffffffffffffffffffffffffffffffff1603611028578160018380549050610f469190614134565b81548110610f5757610f56613f32565b5b9060005260206000200160009054906101000a900473ffffffffffffffffffffffffffffffffffffffff16828281548110610f9557610f94613f32565b5b9060005260206000200160006101000a81548173ffffffffffffffffffffffffffffffffffffffff021916908373ffffffffffffffffffffffffffffffffffffffff16021790555081805480610fee57610fed614168565b5b6001900381819060005260206000200160006101000a81549073ffffffffffffffffffffffffffffffffffffffff02191690559055611035565b8080600101915050610eb8565b508273ffffffffffffffffffffffffffffffffffffffff16847f350f72148ec6d55ca60df525ee17abbcacb4e687308db218d0426ce50e18730860405160405180910390a350505050565b60008054906101000a900473ffffffffffffffffffffffffffffffffffffffff1673ffffffffffffffffffffffffffffffffffffffff163373ffffffffffffffffffffffffffffffffffffffff161461110e576040517f08c379a0000000000000000000000000000000000000000000000000000000008152600401611105906141e3565b60405180910390fd5b6000600260008373ffffffffffffffffffffffffffffffffffffffff1673ffffffffffffffffffffffffffffffffffffffff16815260200190815260200160002060006101000a81548160ff0219169083151502179055508073ffffffffffffffffffffffffffffffffffffffff167f798117ec059ab8d319461ef2502b1f9d8a47cd966bfd1f3e23b6f26c30bebb7760405160405180910390a250565b60008054906101000a900473ffffffffffffffffffffffffffffffffffffffff1673ffffffffffffffffffffffffffffffffffffffff163373ffffffffffffffffffffffffffffffffffffffff161461123a576040517f08c379a0000000000000000000000000000000000000000000000000000000008152600401611231906141e3565b60405180910390fd5b6001600260008373ffffffffffffffffffffffffffffffffffffffff1673ffffffffffffffffffffffffffffffffffffffff16815260200190815260200160002060006101000a81548160ff0219169083151502179055508073ffffffffffffffffffffffffffffffffffffffff167fca86d8c91ca6d00afd863578cc633a0901fad724592f89649629fe65f61410d260405160405180910390a250565b6060600360003373ffffffffffffffffffffffffffffffffffffffff1673ffffffffffffffffffffffffffffffffffffffff16815260200190815260200160002080548060200260200160405190810160405280929190818152602001828054801561136357602002820191906000526020600020905b81548152602001906001019080831161134f575b5050505050905090565b611375612dec565b600260003373ffffffffffffffffffffffffffffffffffffffff1673ffffffffffffffffffffffffffffffffffffffff16815260200190815260200160002060009054906101000a900460ff1615611402576040517f08c379a00000000000000000000000000000000000000000000000000000000081526004016113f990613c4b565b60405180910390fd5b6000600160008481526020019081526020016000206040518061010001604052908160008201805461143390613ffc565b80601f016020809104026020016040519081016040528092919081815260200182805461145f90613ffc565b80156114ac5780601f10611481576101008083540402835291602001916114ac565b820191906000526020600020905b81548152906001019060200180831161148f57829003601f168201915b505050505081526020016001820180546114c590613ffc565b80601f01602080910402602001604051908101604052809291908181526020018280546114f190613ffc565b801561153e5780601f106115135761010080835404028352916020019161153e565b820191906000526020600020905b81548152906001019060200180831161152157829003601f168201915b505050505081526020016002820154815260200160038201805461156190613ffc565b80601f016020809104026020016040519081016040528092919081815260200182805461158d90613ffc565b80156115da5780601f106115af576101008083540402835291602001916115da565b820191906000526020600020905b8154815290600101906020018083116115bd57829003601f168201915b50505050508152602001600482015481526020016005820180546115fd90613ffc565b80601f016020809104026020016040519081016040528092919081815260200182805461162990613ffc565b80156116765780601f1061164b57610100808354040283529160200191611676565b820191906000526020600020905b81548152906001019060200180831161165957829003601f168201915b505050505081526020016006820160009054906101000a900460ff1660028111156116a4576116a3613589565b5b60028111156116b6576116b5613589565b5b81526020016006820160019054906101000a900473ffffffffffffffffffffffffffffffffffffffff1673ffffffffffffffffffffffffffffffffffffffff1673ffffffffffffffffffffffffffffffffffffffff168152505090506000816040015103611759576040517f08c379a000000000000000000000000000000000000000000000000000000000815260040161175090613e14565b60405180910390fd5b60006001600281111561176f5761176e613589565b5b8260c00151600281111561178657611785613589565b5b0361179457600190506118ca565b600060028111156117a8576117a7613589565b5b8260c0015160028111156117bf576117be613589565b5b036117fe573373ffffffffffffffffffffffffffffffffffffffff168260e0015173ffffffffffffffffffffffffffffffffffffffff161490506118c9565b60028081111561181157611810613589565b5b8260c00151600281111561182857611827613589565b5b036118c8573373ffffffffffffffffffffffffffffffffffffffff168260e0015173ffffffffffffffffffffffffffffffffffffffff1614806118c557506005600085815260200190815260200160002060003373ffffffffffffffffffffffffffffffffffffffff1673ffffffffffffffffffffffffffffffffffffffff16815260200190815260200160002060009054906101000a900460ff165b90505b5b5b8061190a576040517f08c379a00000000000000000000000000000000000000000000000000000000081526004016119019061424f565b60405180910390fd5b60405180610120016040528083600001518152602001836020015181526020018360400151815260200183606001518152602001836080015181526020018360a0015181526020018360c00151600281111561196957611968613589565b5b815260200160028081111561198157611980613589565b5b8460c00151600281111561199857611997613589565b5b146119ec57600067ffffffffffffffff8111156119b8576119b7612f07565b5b6040519080825280602002602001820160405280156119e65781602001602082028036833780820191505090505b50611a85565b60066000878152602001908152602001600020805480602002602001604051908101604052809291908181526020018280548015611a7f57602002820191906000526020600020905b8160009054906101000a900473ffffffffffffffffffffffffffffffffffffffff1673ffffffffffffffffffffffffffffffffffffffff1681526020019060010190808311611a35575b50505050505b81526020018360e0015173ffffffffffffffffffffffffffffffffffffffff1681525092505050919050565b6000600260003373ffffffffffffffffffffffffffffffffffffffff1673ffffffffffffffffffffffffffffffffffffffff16815260200190815260200160002060009054906101000a900460ff1615611b40576040517f08c379a0000000000000000000000000000000000000000000000000000000008152600401611b3790613c4b565b60405180910390fd5b6000895111611b84576040517f08c379a0000000000000000000000000000000000000000000000000000000008152600401611b7b906142bb565b60405180910390fd5b6000855111611bc8576040517f08c379a0000000000000000000000000000000000000000000000000000000008152600401611bbf90614327565b60405180910390fd5b600073ffffffffffffffffffffffffffffffffffffffff168273ffffffffffffffffffffffffffffffffffffffff1603611c37576040517f08c379a0000000000000000000000000000000000000000000000000000000008152600401611c2e90614393565b60405180910390fd5b8888888888888742604051602001611c56989796959493929190613d46565b6040516020818303038152906040528051906020012090506000600160008381526020019081526020016000206002015414611cc7576040517f08c379a0000000000000000000000000000000000000000000000000000000008152600401611cbe906143ff565b60405180910390fd5b600060016000838152602001908152602001600020905089816000019081611cef91906145cb565b5088816001019081611d0191906145cb565b5042816002018190555087816003019081611d1c91906145cb565b5086816004018190555085816005019081611d3791906145cb565b50848160060160006101000a81548160ff02191690836002811115611d5f57611d5e613589565b5b0217905550828160060160016101000a81548173ffffffffffffffffffffffffffffffffffffffff021916908373ffffffffffffffffffffffffffffffffffffffff160217905550600360008473ffffffffffffffffffffffffffffffffffffffff1673ffffffffffffffffffffffffffffffffffffffff16815260200190815260200160002082908060018154018082558091505060019003906000526020600020016000909190919091505560016002811115611e2157611e20613589565b5b856002811115611e3457611e33613589565b5b1480611e635750600280811115611e4e57611e4d613589565b5b856002811115611e6157611e60613589565b5b145b15611e925760048290806001815401808255809150506001900390600052602060002001600090919091909150555b600280811115611ea557611ea4613589565b5b856002811115611eb857611eb7613589565b5b036120cc576000845111611f01576040517f08c379a0000000000000000000000000000000000000000000000000000000008152600401611ef8906146e9565b60405180910390fd5b60005b84518110156120ca576000858281518110611f2257611f21613f32565b5b60200260200101519050600073ffffffffffffffffffffffffffffffffffffffff168173ffffffffffffffffffffffffffffffffffffffff1603611f9b576040517f08c379a0000000000000000000000000000000000000000000000000000000008152600401611f9290613fad565b60405180910390fd5b60016005600086815260200190815260200160002060008373ffffffffffffffffffffffffffffffffffffffff1673ffffffffffffffffffffffffffffffffffffffff16815260200190815260200160002060006101000a81548160ff02191690831515021790555060066000858152602001908152602001600020819080600181540180825580915050600190039060005260206000200160009091909190916101000a81548173ffffffffffffffffffffffffffffffffffffffff021916908373ffffffffffffffffffffffffffffffffffffffff1602179055508073ffffffffffffffffffffffffffffffffffffffff16847fd15a4c5b887a08754c030fcac25914029db01cd84f360ab2bf1eb887249cb77460405160405180910390a3508080600101915050611f04565b505b8273ffffffffffffffffffffffffffffffffffffffff16827f1291657596d5ab135f66572db19b661da30eaa9c8a40e6c03d7646eb6c61a4f0876040516121139190614709565b60405180910390a35098975050505050505050565b600260003373ffffffffffffffffffffffffffffffffffffffff1673ffffffffffffffffffffffffffffffffffffffff16815260200190815260200160002060009054906101000a900460ff16156121b5576040517f08c379a00000000000000000000000000000000000000000000000000000000081526004016121ac90613c4b565b60405180910390fd5b60006001600084815260200190815260200160002090506000816002015403612213576040517f08c379a000000000000000000000000000000000000000000000000000000000815260040161220a90613e14565b60405180910390fd5b3373ffffffffffffffffffffffffffffffffffffffff168160060160019054906101000a900473ffffffffffffffffffffffffffffffffffffffff1673ffffffffffffffffffffffffffffffffffffffff16146122a5576040517f08c379a000000000000000000000000000000000000000000000000000000000815260040161229c90614770565b60405180910390fd5b6002808111156122b8576122b7613589565b5b8160060160009054906101000a900460ff1660028111156122dc576122db613589565b5b14801561230d5750600060028111156122f8576122f7613589565b5b82600281111561230b5761230a613589565b5b145b1561252e576000600660008581526020019081526020016000208054806020026020016040519081016040528092919081815260200182805480156123a757602002820191906000526020600020905b8160009054906101000a900473ffffffffffffffffffffffffffffffffffffffff1673ffffffffffffffffffffffffffffffffffffffff168152602001906001019080831161235d575b5050505050905060005b815181101561244a5760006005600087815260200190815260200160002060008484815181106123e4576123e3613f32565b5b602002602001015173ffffffffffffffffffffffffffffffffffffffff1673ffffffffffffffffffffffffffffffffffffffff16815260200190815260200160002060006101000a81548160ff02191690831515021790555080806001019150506123b1565b5060066000858152602001908152602001600020600061246a9190612e60565b60005b60048054905081101561252b57846004828154811061248f5761248e613f32565b5b90600052602060002001540361251e57600460016004805490506124b39190614134565b815481106124c4576124c3613f32565b5b9060005260206000200154600482815481106124e3576124e2613f32565b5b9060005260206000200181905550600480548061250357612502614168565b5b6001900381819060005260206000200160009055905561252b565b808060010191505061246d565b50505b6001600281111561254257612541613589565b5b8160060160009054906101000a900460ff16600281111561256657612565613589565b5b14801561259857506001600281111561258257612581613589565b5b82600281111561259557612594613589565b5b14155b80156125c857506002808111156125b2576125b1613589565b5b8260028111156125c5576125c4613589565b5b14155b156126905760005b60048054905081101561268e5783600482815481106125f2576125f1613f32565b5b90600052602060002001540361268157600460016004805490506126169190614134565b8154811061262757612626613f32565b5b90600052602060002001546004828154811061264657612645613f32565b5b9060005260206000200181905550600480548061266657612665614168565b5b6001900381819060005260206000200160009055905561268e565b80806001019150506125d0565b505b600160028111156126a4576126a3613589565b5b8260028111156126b7576126b6613589565b5b14806126e657506002808111156126d1576126d0613589565b5b8260028111156126e4576126e3613589565b5b145b801561272857506001600281111561270157612700613589565b5b8160060160009054906101000a900460ff16600281111561272557612724613589565b5b14155b8015612769575060028081111561274257612741613589565b5b8160060160009054906101000a900460ff16600281111561276657612765613589565b5b14155b156127ec576000805b6004805490508110156127ba57846004828154811061279457612793613f32565b5b9060005260206000200154036127ad57600191506127ba565b8080600101915050612772565b50806127ea5760048490806001815401808255809150506001900390600052602060002001600090919091909150555b505b818160060160006101000a81548160ff0219169083600281111561281357612812613589565b5b0217905550827f402a67d30b5e91dde6cbed3be44b701b4933343318e602d8e86e738a634da786836040516128489190614709565b60405180910390a2505050565b60008054906101000a900473ffffffffffffffffffffffffffffffffffffffff1681565b600160205280600052604060002060009150905080600001805461289c90613ffc565b80601f01602080910402602001604051908101604052809291908181526020018280546128c890613ffc565b80156129155780601f106128ea57610100808354040283529160200191612915565b820191906000526020600020905b8154815290600101906020018083116128f857829003601f168201915b50505050509080600101805461292a90613ffc565b80601f016020809104026020016040519081016040528092919081815260200182805461295690613ffc565b80156129a35780601f10612978576101008083540402835291602001916129a3565b820191906000526020600020905b81548152906001019060200180831161298657829003601f168201915b5050505050908060020154908060030180546129be90613ffc565b80601f01602080910402602001604051908101604052809291908181526020018280546129ea90613ffc565b8015612a375780601f10612a0c57610100808354040283529160200191612a37565b820191906000526020600020905b815481529060010190602001808311612a1a57829003601f168201915b505050505090806004015490806005018054612a5290613ffc565b80601f0160208091040260200160405190810160405280929190818152602001828054612a7e90613ffc565b8015612acb5780601f10612aa057610100808354040283529160200191612acb565b820191906000526020600020905b815481529060010190602001808311612aae57829003601f168201915b5050505050908060060160009054906101000a900460ff16908060060160019054906101000a900473ffffffffffffffffffffffffffffffffffffffff16905088565b6060600060048054905067ffffffffffffffff811115612b3157612b30612f07565b5b604051908082528060200260200182016040528015612b6a57816020015b612b57612e81565b815260200190600190039081612b4f5790505b50905060005b600480549050811015612d5c57600060048281548110612b9357612b92613f32565b5b90600052602060002001549050600060016000838152602001908152602001600020905060405180606001604052808381526020018260060160019054906101000a900473ffffffffffffffffffffffffffffffffffffffff1673ffffffffffffffffffffffffffffffffffffffff168152602001600280811115612c1b57612c1a613589565b5b8360060160009054906101000a900460ff166002811115612c3f57612c3e613589565b5b14612c9357600067ffffffffffffffff811115612c5f57612c5e612f07565b5b604051908082528060200260200182016040528015612c8d5781602001602082028036833780820191505090505b50612d2c565b60066000858152602001908152602001600020805480602002602001604051908101604052809291908181526020018280548015612d2657602002820191906000526020600020905b8160009054906101000a900473ffffffffffffffffffffffffffffffffffffffff1673ffffffffffffffffffffffffffffffffffffffff1681526020019060010190808311612cdc575b50505050505b815250848481518110612d4257612d41613f32565b5b602002602001018190525050508080600101915050612b70565b508091505090565b60006005600084815260200190815260200160002060008373ffffffffffffffffffffffffffffffffffffffff1673ffffffffffffffffffffffffffffffffffffffff16815260200190815260200160002060009054906101000a900460ff16905092915050565b60026020528060005260406000206000915054906101000a900460ff1681565b60405180610120016040528060608152602001606081526020016000815260200160608152602001600081526020016060815260200160006002811115612e3657612e35613589565b5b815260200160608152602001600073ffffffffffffffffffffffffffffffffffffffff1681525090565b5080546000825590600052602060002090810190612e7e9190612ebb565b50565b604051806060016040528060008019168152602001600073ffffffffffffffffffffffffffffffffffffffff168152602001606081525090565b5b80821115612ed4576000816000905550600101612ebc565b5090565b6000604051905090565b600080fd5b600080fd5b600080fd5b600080fd5b6000601f19601f8301169050919050565b7f4e487b7100000000000000000000000000000000000000000000000000000000600052604160045260246000fd5b612f3f82612ef6565b810181811067ffffffffffffffff82111715612f5e57612f5d612f07565b5b80604052505050565b6000612f71612ed8565b9050612f7d8282612f36565b919050565b600067ffffffffffffffff821115612f9d57612f9c612f07565b5b612fa682612ef6565b9050602081019050919050565b82818337600083830152505050565b6000612fd5612fd084612f82565b612f67565b905082815260208101848484011115612ff157612ff0612ef1565b5b612ffc848285612fb3565b509392505050565b600082601f83011261301957613018612eec565b5b8135613029848260208601612fc2565b91505092915050565b6000819050919050565b61304581613032565b811461305057600080fd5b50565b6000813590506130628161303c565b92915050565b6003811061307557600080fd5b50565b60008135905061308781613068565b92915050565b600073ffffffffffffffffffffffffffffffffffffffff82169050919050565b60006130b88261308d565b9050919050565b6130c8816130ad565b81146130d357600080fd5b50565b6000813590506130e5816130bf565b92915050565b600080600080600080600060e0888a03121561310a57613109612ee2565b5b600088013567ffffffffffffffff81111561312857613127612ee7565b5b6131348a828b01613004565b975050602088013567ffffffffffffffff81111561315557613154612ee7565b5b6131618a828b01613004565b965050604088013567ffffffffffffffff81111561318257613181612ee7565b5b61318e8a828b01613004565b955050606061319f8a828b01613053565b945050608088013567ffffffffffffffff8111156131c0576131bf612ee7565b5b6131cc8a828b01613004565b93505060a06131dd8a828b01613078565b92505060c06131ee8a828b016130d6565b91505092959891949750929550565b6000819050919050565b613210816131fd565b82525050565b600060208201905061322b6000830184613207565b92915050565b61323a816131fd565b811461324557600080fd5b50565b60008135905061325781613231565b92915050565b600067ffffffffffffffff82111561327857613277612f07565b5b602082029050602081019050919050565b600080fd5b60006132a161329c8461325d565b612f67565b905080838252602082019050602084028301858111156132c4576132c3613289565b5b835b818110156132ed57806132d988826130d6565b8452602084019350506020810190506132c6565b5050509392505050565b600082601f83011261330c5761330b612eec565b5b813561331c84826020860161328e565b91505092915050565b6000806040838503121561333c5761333b612ee2565b5b600061334a85828601613248565b925050602083013567ffffffffffffffff81111561336b5761336a612ee7565b5b613377858286016132f7565b9150509250929050565b60006020828403121561339757613396612ee2565b5b60006133a5848285016130d6565b91505092915050565b600081519050919050565b600082825260208201905092915050565b6000819050602082019050919050565b6133e3816131fd565b82525050565b60006133f583836133da565b60208301905092915050565b6000602082019050919050565b6000613419826133ae565b61342381856133b9565b935061342e836133ca565b8060005b8381101561345f57815161344688826133e9565b975061345183613401565b925050600181019050613432565b5085935050505092915050565b60006020820190508181036000830152613486818461340e565b905092915050565b600080604083850312156134a5576134a4612ee2565b5b60006134b385828601613248565b92505060206134c4858286016130d6565b9150509250929050565b6000602082840312156134e4576134e3612ee2565b5b60006134f284828501613248565b91505092915050565b600081519050919050565b600082825260208201905092915050565b60005b8381101561353557808201518184015260208101905061351a565b60008484015250505050565b600061354c826134fb565b6135568185613506565b9350613566818560208601613517565b61356f81612ef6565b840191505092915050565b61358381613032565b82525050565b7f4e487b7100000000000000000000000000000000000000000000000000000000600052602160045260246000fd5b600381106135c9576135c8613589565b5b50565b60008190506135da826135b8565b919050565b60006135ea826135cc565b9050919050565b6135fa816135df565b82525050565b600081519050919050565b600082825260208201905092915050565b6000819050602082019050919050565b613635816130ad565b82525050565b6000613647838361362c565b60208301905092915050565b6000602082019050919050565b600061366b82613600565b613675818561360b565b93506136808361361c565b8060005b838110156136b1578151613698888261363b565b97506136a383613653565b925050600181019050613684565b5085935050505092915050565b60006101208301600083015184820360008601526136dc8282613541565b915050602083015184820360208601526136f68282613541565b915050604083015161370b604086018261357a565b50606083015184820360608601526137238282613541565b9150506080830151613738608086018261357a565b5060a083015184820360a08601526137508282613541565b91505060c083015161376560c08601826135f1565b5060e083015184820360e086015261377d8282613660565b91505061010083015161379461010086018261362c565b508091505092915050565b600060208201905081810360008301526137b981846136be565b905092915050565b600080600080600080600080610100898b0312156137e2576137e1612ee2565b5b600089013567ffffffffffffffff811115613800576137ff612ee7565b5b61380c8b828c01613004565b985050602089013567ffffffffffffffff81111561382d5761382c612ee7565b5b6138398b828c01613004565b975050604089013567ffffffffffffffff81111561385a57613859612ee7565b5b6138668b828c01613004565b96505060606138778b828c01613053565b955050608089013567ffffffffffffffff81111561389857613897612ee7565b5b6138a48b828c01613004565b94505060a06138b58b828c01613078565b93505060c089013567ffffffffffffffff8111156138d6576138d5612ee7565b5b6138e28b828c016132f7565b92505060e06138f38b828c016130d6565b9150509295985092959890939650565b6000806040838503121561391a57613919612ee2565b5b600061392885828601613248565b925050602061393985828601613078565b9150509250929050565b61394c816130ad565b82525050565b60006020820190506139676000830184613943565b92915050565b600082825260208201905092915050565b6000613989826134fb565b613993818561396d565b93506139a3818560208601613517565b6139ac81612ef6565b840191505092915050565b6139c081613032565b82525050565b6139cf816135df565b82525050565b60006101008201905081810360008301526139f0818b61397e565b90508181036020830152613a04818a61397e565b9050613a1360408301896139b7565b8181036060830152613a25818861397e565b9050613a3460808301876139b7565b81810360a0830152613a46818661397e565b9050613a5560c08301856139c6565b613a6260e0830184613943565b9998505050505050505050565b600081519050919050565b600082825260208201905092915050565b6000819050602082019050919050565b6000606083016000830151613ab360008601826133da565b506020830151613ac6602086018261362c565b5060408301518482036040860152613ade8282613660565b9150508091505092915050565b6000613af78383613a9b565b905092915050565b6000602082019050919050565b6000613b1782613a6f565b613b218185613a7a565b935083602082028501613b3385613a8b565b8060005b85811015613b6f5784840389528151613b508582613aeb565b9450613b5b83613aff565b925060208a01995050600181019050613b37565b50829750879550505050505092915050565b60006020820190508181036000830152613b9b8184613b0c565b905092915050565b60008115159050919050565b613bb881613ba3565b82525050565b6000602082019050613bd36000830184613baf565b92915050565b7f596f752061726520626c6f636b65642066726f6d207573696e6720746869732060008201527f636f6e7472616374000000000000000000000000000000000000000000000000602082015250565b6000613c3560288361396d565b9150613c4082613bd9565b604082019050919050565b60006020820190508181036000830152613c6481613c28565b9050919050565b600081905092915050565b6000613c81826134fb565b613c8b8185613c6b565b9350613c9b818560208601613517565b80840191505092915050565b6000819050919050565b613cc2613cbd82613032565b613ca7565b82525050565b60008160f81b9050919050565b6000613ce082613cc8565b9050919050565b613cf8613cf3826135df565b613cd5565b82525050565b60008160601b9050919050565b6000613d1682613cfe565b9050919050565b6000613d2882613d0b565b9050919050565b613d40613d3b826130ad565b613d1d565b82525050565b6000613d52828b613c76565b9150613d5e828a613c76565b9150613d6a8289613c76565b9150613d768288613cb1565b602082019150613d868287613c76565b9150613d928286613ce7565b600182019150613da28285613d2f565b601482019150613db28284613cb1565b6020820191508190509998505050505050505050565b7f46696c6520646f6573206e6f7420657869737400000000000000000000000000600082015250565b6000613dfe60138361396d565b9150613e0982613dc8565b602082019050919050565b60006020820190508181036000830152613e2d81613df1565b9050919050565b7f4f6e6c792075706c6f616465722063616e207368617265000000000000000000600082015250565b6000613e6a60178361396d565b9150613e7582613e34565b602082019050919050565b60006020820190508181036000830152613e9981613e5d565b9050919050565b7f46696c65206d757374206861766520536861726564206163636573732074797060008201527f6500000000000000000000000000000000000000000000000000000000000000602082015250565b6000613efc60218361396d565b9150613f0782613ea0565b604082019050919050565b60006020820190508181036000830152613f2b81613eef565b9050919050565b7f4e487b7100000000000000000000000000000000000000000000000000000000600052603260045260246000fd5b7f496e76616c696420736861726564206164647265737300000000000000000000600082015250565b6000613f9760168361396d565b9150613fa282613f61565b602082019050919050565b60006020820190508181036000830152613fc681613f8a565b9050919050565b7f4e487b7100000000000000000000000000000000000000000000000000000000600052602260045260246000fd5b6000600282049050600182168061401457607f821691505b60208210810361402757614026613fcd565b5b50919050565b7f4f6e6c792075706c6f616465722063616e207265766f6b650000000000000000600082015250565b600061406360188361396d565b915061406e8261402d565b602082019050919050565b6000602082019050818103600083015261409281614056565b9050919050565b7f55736572206e6f74207368617265642077697468000000000000000000000000600082015250565b60006140cf60148361396d565b91506140da82614099565b602082019050919050565b600060208201905081810360008301526140fe816140c2565b9050919050565b7f4e487b7100000000000000000000000000000000000000000000000000000000600052601160045260246000fd5b600061413f82613032565b915061414a83613032565b925082820390508181111561416257614161614105565b5b92915050565b7f4e487b7100000000000000000000000000000000000000000000000000000000600052603160045260246000fd5b7f4f6e6c79206f776e657220616c6c6f7765640000000000000000000000000000600082015250565b60006141cd60128361396d565b91506141d882614197565b602082019050919050565b600060208201905081810360008301526141fc816141c0565b9050919050565b7f4163636573732064656e69656400000000000000000000000000000000000000600082015250565b6000614239600d8361396d565b915061424482614203565b602082019050919050565b600060208201905081810360008301526142688161422c565b9050919050565b7f46696c65206e616d652063616e6e6f7420626520656d70747900000000000000600082015250565b60006142a560198361396d565b91506142b08261426f565b602082019050919050565b600060208201905081810360008301526142d481614298565b9050919050565b7f4349442063616e6e6f7420626520656d70747900000000000000000000000000600082015250565b600061431160138361396d565b915061431c826142db565b602082019050919050565b6000602082019050818103600083015261434081614304565b9050919050565b7f496e76616c69642075706c6f6164657220616464726573730000000000000000600082015250565b600061437d60188361396d565b915061438882614347565b602082019050919050565b600060208201905081810360008301526143ac81614370565b9050919050565b7f46696c6520616c72656164792065786973747300000000000000000000000000600082015250565b60006143e960138361396d565b91506143f4826143b3565b602082019050919050565b60006020820190508181036000830152614418816143dc565b9050919050565b60008190508160005260206000209050919050565b60006020601f8301049050919050565b600082821b905092915050565b6000600883026144817fffffffffffffffffffffffffffffffffffffffffffffffffffffffffffffffff82614444565b61448b8683614444565b95508019841693508086168417925050509392505050565b6000819050919050565b60006144c86144c36144be84613032565b6144a3565b613032565b9050919050565b6000819050919050565b6144e2836144ad565b6144f66144ee826144cf565b848454614451565b825550505050565b600090565b61450b6144fe565b6145168184846144d9565b505050565b5b8181101561453a5761452f600082614503565b60018101905061451c565b5050565b601f82111561457f576145508161441f565b61455984614434565b81016020851015614568578190505b61457c61457485614434565b83018261451b565b50505b505050565b600082821c905092915050565b60006145a260001984600802614584565b1980831691505092915050565b60006145bb8383614591565b9150826002028217905092915050565b6145d4826134fb565b67ffffffffffffffff8111156145ed576145ec612f07565b5b6145f78254613ffc565b61460282828561453e565b600060209050601f8311600181146146355760008415614623578287015190505b61462d85826145af565b865550614695565b601f1984166146438661441f565b60005b8281101561466b57848901518255600182019150602085019450602081019050614646565b868310156146885784890151614684601f891682614591565b8355505b6001600288020188555050505b505050505050565b7f536861726564206c6973742063616e6e6f7420626520656d7074790000000000600082015250565b60006146d3601b8361396d565b91506146de8261469d565b602082019050919050565b60006020820190508181036000830152614702816146c6565b9050919050565b600060208201905061471e60008301846139c6565b92915050565b7f4f6e6c792075706c6f616465722063616e206368616e67652061636365737300600082015250565b600061475a601f8361396d565b915061476582614724565b602082019050919050565b600060208201905081810360008301526147898161474d565b905091905056fea26469706673582212208f8e54f78445b0b1f6e8a1a504a4cf3afd54602619169236c4e510a6810116db64736f6c634300081c0033",
  "linkReferences": {},
  "deployedLinkReferences": {}
}